{
  "_format": "hh-sol-artifact-1",
  "contractName": "Etendering",
  "sourceName": "contracts/Etender.sol",
  "abi": [
    {
      "anonymous": false,
      "inputs": [
        {
          "indexed": false,
          "internalType": "uint256",
          "name": "tenderId",
          "type": "uint256"
        },
        {
          "indexed": false,
          "internalType": "address",
          "name": "bidder",
          "type": "address"
        },
        {
          "indexed": false,
          "internalType": "uint256",
          "name": "bidamount",
          "type": "uint256"
        },
        {
          "indexed": false,
          "internalType": "uint256",
          "name": "timestamp",
          "type": "uint256"
        }
      ],
      "name": "BidSubmitted",
      "type": "event"
    },
    {
      "anonymous": false,
      "inputs": [
        {
          "indexed": false,
          "internalType": "uint256",
          "name": "tenderId",
          "type": "uint256"
        },
        {
          "indexed": false,
          "internalType": "address",
          "name": "winner",
          "type": "address"
        },
        {
          "indexed": false,
          "internalType": "uint256",
          "name": "lowestBid",
          "type": "uint256"
        }
      ],
      "name": "TenderClosed",
      "type": "event"
    },
    {
      "anonymous": false,
      "inputs": [
        {
          "indexed": false,
          "internalType": "uint256",
          "name": "tenderId",
          "type": "uint256"
        },
        {
          "indexed": false,
          "internalType": "string",
          "name": "title",
          "type": "string"
        },
        {
          "indexed": false,
          "internalType": "address",
          "name": "owner",
          "type": "address"
        },
        {
          "indexed": false,
          "internalType": "uint256",
          "name": "Odate",
          "type": "uint256"
        },
        {
          "indexed": false,
          "internalType": "uint256",
          "name": "Cdate",
          "type": "uint256"
        },
        {
          "indexed": false,
          "internalType": "uint256",
          "name": "Amount",
          "type": "uint256"
        }
      ],
      "name": "TenderCreated",
      "type": "event"
    },
    {
      "inputs": [
        {
          "internalType": "uint256",
          "name": "",
          "type": "uint256"
        },
        {
          "internalType": "uint256",
          "name": "",
          "type": "uint256"
        }
      ],
      "name": "bids",
      "outputs": [
        {
          "internalType": "uint256",
          "name": "tenderId",
          "type": "uint256"
        },
        {
          "internalType": "address",
          "name": "bidder",
          "type": "address"
        },
        {
          "internalType": "uint256",
          "name": "bidamount",
          "type": "uint256"
        },
        {
          "internalType": "uint256",
          "name": "timestamp",
          "type": "uint256"
        }
      ],
      "stateMutability": "view",
      "type": "function"
    },
    {
      "inputs": [
        {
          "internalType": "uint256",
          "name": "_tenderId",
          "type": "uint256"
        }
      ],
      "name": "closeTender",
      "outputs": [
        {
          "internalType": "address",
          "name": "winner",
          "type": "address"
        },
        {
          "internalType": "uint256",
          "name": "lowestBid",
          "type": "uint256"
        }
      ],
      "stateMutability": "nonpayable",
      "type": "function"
    },
    {
      "inputs": [
        {
          "internalType": "string",
          "name": "_title",
          "type": "string"
        },
        {
          "internalType": "string",
          "name": "_description",
          "type": "string"
        },
        {
          "internalType": "uint256",
          "name": "_Odate",
          "type": "uint256"
        },
        {
          "internalType": "uint256",
          "name": "_Cdate",
          "type": "uint256"
        },
        {
          "internalType": "uint256",
          "name": "_Amount",
          "type": "uint256"
        },
        {
          "internalType": "string",
          "name": "_ipfsHash",
          "type": "string"
        }
      ],
      "name": "createTender",
      "outputs": [],
      "stateMutability": "nonpayable",
      "type": "function"
    },
    {
      "inputs": [
        {
          "internalType": "uint256",
          "name": "_tenderId",
          "type": "uint256"
        },
        {
          "internalType": "uint256",
          "name": "_bidamount",
          "type": "uint256"
        }
      ],
      "name": "submitBid",
      "outputs": [],
      "stateMutability": "nonpayable",
      "type": "function"
    },
    {
      "inputs": [
        {
          "internalType": "uint256",
          "name": "",
          "type": "uint256"
        }
      ],
      "name": "tenders",
      "outputs": [
        {
          "internalType": "uint256",
          "name": "id",
          "type": "uint256"
        },
        {
          "internalType": "string",
          "name": "title",
          "type": "string"
        },
        {
          "internalType": "string",
          "name": "description",
          "type": "string"
        },
        {
          "internalType": "uint256",
          "name": "Odate",
          "type": "uint256"
        },
        {
          "internalType": "uint256",
          "name": "Cdate",
          "type": "uint256"
        },
        {
          "internalType": "uint256",
          "name": "Amount",
          "type": "uint256"
        },
        {
          "internalType": "address",
          "name": "owner",
          "type": "address"
        },
        {
          "internalType": "string",
          "name": "ipfsHash",
          "type": "string"
        }
      ],
      "stateMutability": "view",
      "type": "function"
    }
  ],
  "bytecode": "0x608060405234801561001057600080fd5b5061148a806100206000396000f3fe608060405234801561001057600080fd5b50600436106100565760003560e01c8062cda3da1461005b578063223088e51461008c578063465e1def146100a85780637b3c4baa146100df578063b821da1b14610112575b600080fd5b610075600480360381019061007091906109f7565b61012e565b604051610083929190610a74565b60405180910390f35b6100a660048036038101906100a19190610be3565b61040a565b005b6100c260048036038101906100bd91906109f7565b6105cc565b6040516100d6989796959493929190610d43565b60405180910390f35b6100f960048036038101906100f49190610dd6565b6107cc565b6040516101099493929190610e16565b60405180910390f35b61012c60048036038101906101279190610dd6565b610839565b005b6000803373ffffffffffffffffffffffffffffffffffffffff166001600085815260200190815260200160002060060160009054906101000a900473ffffffffffffffffffffffffffffffffffffffff1673ffffffffffffffffffffffffffffffffffffffff16146101d5576040517f08c379a00000000000000000000000000000000000000000000000000000000081526004016101cc90610ea7565b60405180910390fd5b6001600084815260200190815260200160002060040154421161022d576040517f08c379a000000000000000000000000000000000000000000000000000000000815260040161022490610f13565b60405180910390fd5b600060026000858152602001908152602001600020805480602002602001604051908101604052809291908181526020016000905b828210156103085783829060005260206000209060040201604051806080016040529081600082015481526020016001820160009054906101000a900473ffffffffffffffffffffffffffffffffffffffff1673ffffffffffffffffffffffffffffffffffffffff1673ffffffffffffffffffffffffffffffffffffffff1681526020016002820154815260200160038201548152505081526020019060010190610262565b50505050905060007fffffffffffffffffffffffffffffffffffffffffffffffffffffffffffffffff9050600080600090505b83518110156103c0578284828151811061035857610357610f33565b5b60200260200101516040015110156103ad5783818151811061037d5761037c610f33565b5b602002602001015160400151925083818151811061039e5761039d610f33565b5b60200260200101516020015191505b80806103b890610f91565b91505061033b565b507f6a8da3e80c8077fe06cc6c3f48b5c446dc3cd31ea4f93b87799de1498dfd6aa18682846040516103f493929190610fd9565b60405180910390a1808294509450505050915091565b838380821061044e576040517f08c379a000000000000000000000000000000000000000000000000000000000815260040161044590611082565b60405180910390fd5b60008081548092919061046090610f91565b919050555060405180610100016040528060005481526020018981526020018881526020018781526020018681526020018581526020013373ffffffffffffffffffffffffffffffffffffffff1681526020018481525060016000805481526020019081526020016000206000820151816000015560208201518160010190816104ea91906112ae565b50604082015181600201908161050091906112ae565b50606082015181600301556080820151816004015560a0820151816005015560c08201518160060160006101000a81548173ffffffffffffffffffffffffffffffffffffffff021916908373ffffffffffffffffffffffffffffffffffffffff16021790555060e082015181600701908161057b91906112ae565b509050507f0d6079f9ecc24c2f6ab697126e9b3921adb13dac6bd86a52f8743a9ebc91a5a960005489338989896040516105ba96959493929190611380565b60405180910390a15050505050505050565b60016020528060005260406000206000915090508060000154908060010180546105f5906110d1565b80601f0160208091040260200160405190810160405280929190818152602001828054610621906110d1565b801561066e5780601f106106435761010080835404028352916020019161066e565b820191906000526020600020905b81548152906001019060200180831161065157829003601f168201915b505050505090806002018054610683906110d1565b80601f01602080910402602001604051908101604052809291908181526020018280546106af906110d1565b80156106fc5780601f106106d1576101008083540402835291602001916106fc565b820191906000526020600020905b8154815290600101906020018083116106df57829003601f168201915b5050505050908060030154908060040154908060050154908060060160009054906101000a900473ffffffffffffffffffffffffffffffffffffffff1690806007018054610749906110d1565b80601f0160208091040260200160405190810160405280929190818152602001828054610775906110d1565b80156107c25780601f10610797576101008083540402835291602001916107c2565b820191906000526020600020905b8154815290600101906020018083116107a557829003601f168201915b5050505050905088565b600260205281600052604060002081815481106107e857600080fd5b9060005260206000209060040201600091509150508060000154908060010160009054906101000a900473ffffffffffffffffffffffffffffffffffffffff16908060020154908060030154905084565b6001600083815260200190815260200160002060030154421015610892576040517f08c379a000000000000000000000000000000000000000000000000000000000815260040161088990611434565b60405180910390fd5b6002600083815260200190815260200160002060405180608001604052808481526020013373ffffffffffffffffffffffffffffffffffffffff1681526020018381526020014281525090806001815401808255809150506001900390600052602060002090600402016000909190919091506000820151816000015560208201518160010160006101000a81548173ffffffffffffffffffffffffffffffffffffffff021916908373ffffffffffffffffffffffffffffffffffffffff160217905550604082015181600201556060820151816003015550507f71a5674c44b823bc0df08201dfeb2e8bdf698cd684fd2bbaa79adcf2c99fc186823383426040516109a19493929190610e16565b60405180910390a15050565b6000604051905090565b600080fd5b600080fd5b6000819050919050565b6109d4816109c1565b81146109df57600080fd5b50565b6000813590506109f1816109cb565b92915050565b600060208284031215610a0d57610a0c6109b7565b5b6000610a1b848285016109e2565b91505092915050565b600073ffffffffffffffffffffffffffffffffffffffff82169050919050565b6000610a4f82610a24565b9050919050565b610a5f81610a44565b82525050565b610a6e816109c1565b82525050565b6000604082019050610a896000830185610a56565b610a966020830184610a65565b9392505050565b600080fd5b600080fd5b6000601f19601f8301169050919050565b7f4e487b7100000000000000000000000000000000000000000000000000000000600052604160045260246000fd5b610af082610aa7565b810181811067ffffffffffffffff82111715610b0f57610b0e610ab8565b5b80604052505050565b6000610b226109ad565b9050610b2e8282610ae7565b919050565b600067ffffffffffffffff821115610b4e57610b4d610ab8565b5b610b5782610aa7565b9050602081019050919050565b82818337600083830152505050565b6000610b86610b8184610b33565b610b18565b905082815260208101848484011115610ba257610ba1610aa2565b5b610bad848285610b64565b509392505050565b600082601f830112610bca57610bc9610a9d565b5b8135610bda848260208601610b73565b91505092915050565b60008060008060008060c08789031215610c0057610bff6109b7565b5b600087013567ffffffffffffffff811115610c1e57610c1d6109bc565b5b610c2a89828a01610bb5565b965050602087013567ffffffffffffffff811115610c4b57610c4a6109bc565b5b610c5789828a01610bb5565b9550506040610c6889828a016109e2565b9450506060610c7989828a016109e2565b9350506080610c8a89828a016109e2565b92505060a087013567ffffffffffffffff811115610cab57610caa6109bc565b5b610cb789828a01610bb5565b9150509295509295509295565b600081519050919050565b600082825260208201905092915050565b60005b83811015610cfe578082015181840152602081019050610ce3565b60008484015250505050565b6000610d1582610cc4565b610d1f8185610ccf565b9350610d2f818560208601610ce0565b610d3881610aa7565b840191505092915050565b600061010082019050610d59600083018b610a65565b8181036020830152610d6b818a610d0a565b90508181036040830152610d7f8189610d0a565b9050610d8e6060830188610a65565b610d9b6080830187610a65565b610da860a0830186610a65565b610db560c0830185610a56565b81810360e0830152610dc78184610d0a565b90509998505050505050505050565b60008060408385031215610ded57610dec6109b7565b5b6000610dfb858286016109e2565b9250506020610e0c858286016109e2565b9150509250929050565b6000608082019050610e2b6000830187610a65565b610e386020830186610a56565b610e456040830185610a65565b610e526060830184610a65565b95945050505050565b7f596f7520617265206e6f74207468652054656e646572204f776e657200000000600082015250565b6000610e91601c83610ccf565b9150610e9c82610e5b565b602082019050919050565b60006020820190508181036000830152610ec081610e84565b9050919050565b7f54656e646572206973207374696c6c206f70656e000000000000000000000000600082015250565b6000610efd601483610ccf565b9150610f0882610ec7565b602082019050919050565b60006020820190508181036000830152610f2c81610ef0565b9050919050565b7f4e487b7100000000000000000000000000000000000000000000000000000000600052603260045260246000fd5b7f4e487b7100000000000000000000000000000000000000000000000000000000600052601160045260246000fd5b6000610f9c826109c1565b91507fffffffffffffffffffffffffffffffffffffffffffffffffffffffffffffffff8203610fce57610fcd610f62565b5b600182019050919050565b6000606082019050610fee6000830186610a65565b610ffb6020830185610a56565b6110086040830184610a65565b949350505050565b7f436865636b207468652064617465733a204f70656e696e672064617465206d7560008201527f7374206265206561726c696572207468616e20636c6f73696e67206461746500602082015250565b600061106c603f83610ccf565b915061107782611010565b604082019050919050565b6000602082019050818103600083015261109b8161105f565b9050919050565b7f4e487b7100000000000000000000000000000000000000000000000000000000600052602260045260246000fd5b600060028204905060018216806110e957607f821691505b6020821081036110fc576110fb6110a2565b5b50919050565b60008190508160005260206000209050919050565b60006020601f8301049050919050565b600082821b905092915050565b6000600883026111647fffffffffffffffffffffffffffffffffffffffffffffffffffffffffffffffff82611127565b61116e8683611127565b95508019841693508086168417925050509392505050565b6000819050919050565b60006111ab6111a66111a1846109c1565b611186565b6109c1565b9050919050565b6000819050919050565b6111c583611190565b6111d96111d1826111b2565b848454611134565b825550505050565b600090565b6111ee6111e1565b6111f98184846111bc565b505050565b5b8181101561121d576112126000826111e6565b6001810190506111ff565b5050565b601f8211156112625761123381611102565b61123c84611117565b8101602085101561124b578190505b61125f61125785611117565b8301826111fe565b50505b505050565b600082821c905092915050565b600061128560001984600802611267565b1980831691505092915050565b600061129e8383611274565b9150826002028217905092915050565b6112b782610cc4565b67ffffffffffffffff8111156112d0576112cf610ab8565b5b6112da82546110d1565b6112e5828285611221565b600060209050601f8311600181146113185760008415611306578287015190505b6113108582611292565b865550611378565b601f19841661132686611102565b60005b8281101561134e57848901518255600182019150602085019450602081019050611329565b8683101561136b5784890151611367601f891682611274565b8355505b6001600288020188555050505b505050505050565b600060c0820190506113956000830189610a65565b81810360208301526113a78188610d0a565b90506113b66040830187610a56565b6113c36060830186610a65565b6113d06080830185610a65565b6113dd60a0830184610a65565b979650505050505050565b7f54656e64657220686173206e6f74206f70656e65642079657400000000000000600082015250565b600061141e601983610ccf565b9150611429826113e8565b602082019050919050565b6000602082019050818103600083015261144d81611411565b905091905056fea26469706673582212200cb0c3c4136f1d99983c74e2df13f9769a090f3f17f912c196f25efe71072b6164736f6c63430008140033",
  "linkReferences": {},
  "deployedLinkReferences": {}
}